:020000040800F2
:100000000010002015040008010400080304000883
:1000100000000000000000000000000000000000E0
:1000200000000000000000000000000005040008BF
:100030000000000000000000070400080904000898
:10004000650400080000000065040008650400085D
:1000500065040008650400086504000865040008DC
:10006000000000006504000865040008650400083D
:10007000650400086504000865040008000000002D
:10008000650400080000000000000000650400088E
:10009000000000006504000865040008650400080D
:1000A000000000006504000800000000650400086E
:1000B0000000000000000000000000000000000040
:1000C00010B5064C2378002B07D1054B002B02D02E
:1000D000044800E000BF0123237010BD3C04002051
:1000E00000000000F8110008044B10B5002B03D0ED
:1000F0000349044800E000BF10BDC04600000000F6
:1001000040040020F8110008002243088B4274D3F9
:1001100003098B425FD3030A8B4244D3030B8B4208
:1001200028D3030C8B420DD3FF22090212BA030C11
:100130008B4202D31212090265D0030B8B4219D3F2
:1001400000E0090AC30B8B4201D3CB03C01A524112
:10015000830B8B4201D38B03C01A5241430B8B425A
:1001600001D34B03C01A5241030B8B4201D30B0343
:10017000C01A5241C30A8B4201D3CB02C01A52416A
:10018000830A8B4201D38B02C01A5241430A8B422D
:1001900001D34B02C01A5241030A8B4201D30B0216
:1001A000C01A5241CDD2C3098B4201D3CB01C01A30
:1001B000524183098B4201D38B01C01A524143093A
:1001C0008B4201D34B01C01A524103098B4201D328
:1001D0000B01C01A5241C3088B4201D3CB00C01A95
:1001E000524183088B4201D38B00C01A524143080D
:1001F0008B4201D34B00C01A5241411A00D2014632
:10020000524110467047FFE701B5002000F006F8A4
:1002100002BDC0460029F7D076E770477047C04658
:1002200000B585B00C22002101A800F00FFF1E4888
:100230001E4B0360002343608360C36001220261A0
:1002400004214161037643768376C376C221FF3170
:10025000C16103629E39FF394354826200F04EF956
:10026000002817D10123019380235B01029380238F
:100270005B05039301A90C4800F002FA00280CD199
:100280000223019301A9084800F0FAF9002807D1D8
:1002900005B000BD00F064F8E4E700F061F8EFE7B6
:1002A00000F05EF8F4E7C046580400200024014046
:1002B00010B588B004001422002103A800F0C6FE87
:1002C0002268114B9A4201D008B010BD0F4B9969BA
:1002D00080208000014399619A6902400192019A4D
:1002E0005A69802189020A435A615B690B40029373
:1002F000029B06230393033B04937138FF3803A941
:10030000C00500F0A3FADFE700240140001002401E
:1003100010B586B01422002101A800F097FE0F4A04
:100320005169802080020143516153690340009369
:10033000009B9024E40500222021200000F04CFBCB
:10034000202301931F3B029300230393049301A9ED
:10035000200000F07BFA06B010BDC046001002403D
:1003600072B6FEE710B590B03022002104A800F06C
:100370006DFE102410220021684600F067FE122353
:100380000493113B0793099308940A9404A800F07E
:1003900029FB00280DD1072300930023019302932A
:1003A00003930021684600F095FD002803D110B0AA
:1003B00010BDFFF7D5FFFFF7D3FF10B500F07CF8B5
:1003C000FFF7D0FFFFF7A4FFFFF72AFFFEE70000CB
:1003D00082B00A4B996901221143996199690A40D7
:1003E0000092009ADA69802149050A43DA61DB69E3
:1003F0000B400193019B02B07047C04600100240C1
:10040000FEE7FEE77047704710B500F065F810BDD5
:10041000704700000D488546FFF7FAFF0C480D496C
:100420000D4A002302E0D458C4500433C4188C424F
:10043000F9D30A4A0A4C002301E013600432A242B5
:10044000FBD300F0E1FDFFF7B8FFFEE7001000204E
:10045000000000203C040020501200083C04002052
:10046000A0040020FEE7000010B504000F4B19782F
:10047000FA208000FFF748FE01000D4B1868FFF7D7
:1004800043FE00F0C7F900280DD1032C01D901204B
:100490000AE0013000222100404200F08BF9054BB8
:1004A0001C60002000E0012010BDC04604000020B8
:1004B000000000200800002010B5064A1368102133
:1004C0000B4313600320FFF7CFFFFFF781FF0020EE
:1004D00010BDC04600200240034A1168034B1B7840
:1004E0005B1813607047C046980400200400002089
:1004F000014B18687047C0469804002070B5041E70
:1005000000D1B4E0836B002B00D180E0A36BDB064D
:1005100000D5A6E022689168042005000D4008423D
:1005200000D09EE0A16B534B19400633FF331943B3
:10053000A163916801330B40012B6ED0D368182161
:100540008B43A1680B43D360226813699B009B080F
:1005500061680B4313612268D36847490B40D3603D
:10056000237E9B03627ED2031343A17E4A0313437F
:10057000A26A012A58D0802252011343E268134331
:100580002269022A52D02B432422A25C5200134338
:10059000E27E012A4CD0E269C221FF318A4202D0B8
:1005A000216A0A4313432168CA681A43CA60E26A8F
:1005B000802149058A420DD0012A0BD0022A09D098
:1005C000032A07D0042A05D0052A03D0062A01D021
:1005D000072A0AD1206841690722914341612068B6
:1005E0004169E56A2A400A4342612268D268234988
:1005F0000A409A422BD0A36B12229343023A134330
:10060000A363E36B0F3A1343E36301202EE0C3635C
:1006100034228354FFF74CFE78E71368DB079AD443
:10062000D3681B0497D489E72A00A6E70425AAE724
:10063000002903D1802252021343ACE7A26B202190
:100640000A43A263E26B1F390A43E263A3E7002374
:10065000E363A36B03229343023A1343A363002093
:1006600004E0A36B10221343A363012070BD01209B
:10067000FCE7C046FDFEFFFF1902FEFFE7FF3F83D8
:1006800030B583B00400002301933433C35C012BE5
:1006900000D181E034230122C25403689A685207D2
:1006A00070D43E4A4868904253D09A6A01200D683F
:1006B000A84002439A62E36A8022520593421ED008
:1006C000012B1CD0022B1AD0032B18D0042B16D0D0
:1006D000052B14D0062B12D0072B10D0226850699E
:1006E000072303408868984209D05069072398433C
:1006F0005061206842698D682B40134343610B6849
:100700001A00103A012A01D9002040E0244A126858
:10071000102B09D08023DB031343214A13600B689D
:10072000102B04D0002032E080231B04F4E71D4B83
:1007300018681D49FFF7E8FC83001B185B00019354
:1007400002E0019B013B0193019B002BF9D10020AA
:100750001DE09A6A01200D68A84082439A620B68E6
:100760001A00103A012A01D9002010E00C4A126840
:10077000102B05D00D4B1340094A1360002006E0F2
:100780000B4BF8E7836B2022134383630120342350
:100790000022E25403B030BD0220FBE7011000004C
:1007A000082701400000002040420F00FFFFBFFF6C
:1007B000FFFF7FFF70B5002811DB8308134EC033A5
:1007C0009B009D5903242040C000FF221400844058
:1007D000A54389010A4082402A439A5170BD0F23E4
:1007E0000340083B9B0806339B00094A9446634438
:1007F0005C6803221040C000FC3215008540AC4309
:1008000089010A40824022435A60E7E700E100E0A4
:1008100000ED00E0013880235B0498420FD2094AC2
:1008200050600948036A1B021B0AC02109060B43DA
:100830000362002393600733136000207047012098
:10084000FCE7C04610E000E000ED00E0F0B583B04A
:10085000002357E084685F000326BE40B4432600AF
:10086000CC68BC4034438460446894434A681609A9
:10087000012232409A402243426053E0DC080834AF
:10088000A400265805321A4092000F279740BE4315
:100890000F6997403A003243225057E0032600E0A8
:1008A0000026A64034003C4302329200444E94514C
:1008B000444A9468EA432600AE434F68FF0201D5DC
:1008C0002C4326003F4CA660E468260016404F6883
:1008D000BF0201D52C4326003A4CE660646826002E
:1008E00016404F68BF0301D52C432600354C666087
:1008F000246822404E68F60301D52A002243314C79
:10090000226001330C682200DA4057D001229A405D
:10091000250015401442F4D003244E683440013CB5
:10092000012C97D903224C682240032A09D0C268BF
:100930005E000324B440A24314008A68B2402243FC
:10094000C26003224C682240022A97D004685E00ED
:1009500003221700B740BC434F683A40B2402243DD
:100960000260C02292024C681442CAD0164CA6699A
:1009700001221643A661A46922400192019A9A08B5
:10098000941CA4000E4EA75903241C40A4000F265B
:10099000A640B7439026F605B04281D00B4EB04238
:1009A00008D00B4EB04207D00A4EB04200D175E7D6
:1009B000052676E7012674E7022672E703B0F0BD4C
:1009C0000000014000040140001002400004004803
:1009D00000080048000C0048002A01D081617047DF
:1009E0008162FCE770B582B0041E00D12EE203687C
:1009F000DB0726D5AE4B5A680C231340042B18D0C6
:100A0000AB4B5A680C231340082B0ED06368012BA4
:100A10003CD0002B51D1A64B1A68A6490A401A6057
:100A20001A68A5490A401A6036E0A14B5B68DB03EF
:100A3000ECD59F4B1B689B0303D56368002B00D14B
:100A400007E223689B0772D5994B5B680C221A4218
:100A50005DD0974B5A680C231340082B53D0E368A2
:100A6000002B00D185E0924A136801210B431360EB
:100A7000FFF73EFD05008E4B1B689B0770D4FFF708
:100A800037FD401B0228F6D90320E0E1884A1168AF
:100A900080235B020B4313606368002B25D0FFF7B4
:100AA00027FD0500824B1B689B03CAD4FFF720FD7E
:100AB000401B6428F6D90320C9E1052B09D07C4BE3
:100AC0001A687C490A401A601A687B490A401A6011
:100AD000E2E7774B19688022D2020A431A6019684C
:100AE000802252020A431A60D6E7FFF701FD050093
:100AF0006F4B1B689B03A4D5FFF7FAFC401B6428CF
:100B0000F6D90320A3E16A4B5B68DB03A7D4684BEB
:100B10001B689B0703D5E368012B00D09BE1644968
:100B20000B68F82293432269D20013430B602368B9
:100B30001B0744D5E369002B2ED05D4A536A01217F
:100B40000B435362FFF7D4FC0500594B5B6A9B07CC
:100B500035D4FFF7CDFC401B0228F6D9032076E1FF
:100B600053490B68F82293432269D20013430B6068
:100B7000DDE74F4A136801218B431360FFF7B8FC90
:100B800005004B4B1B689B07D1D5FFF7B1FC401B01
:100B90000228F6D903205AE1454A536A01218B43C2
:100BA0005362FFF7A5FC0500414B5B6A9B0706D526
:100BB000FFF79EFC401B0228F6D9032047E123687B
:100BC0005B0700D480E03A4BDB69DB001DD4384A78
:100BD000D169802040050143D161D369034001936D
:100BE000019B0125354B1B68DB0510D5A368012B44
:100BF00021D0002B36D12E4B1A6A01218A431A626A
:100C00001A6A03318A431A621AE00025EAE72B4A7E
:100C1000116880235B000B431360FFF769FC06003B
:100C2000264B1B68DB05E1D4FFF762FC801B6428C0
:100C3000F6D903200BE11E4A136A01210B4313620C
:100C4000A368002B24D0FFF753FC0600184B1B6A47
:100C50009B0737D4FFF74CFC801B194B9842F5D902
:100C60000320F4E0052B09D0114B1A6A01218A43B5
:100C70001A621A6A03318A431A62E1E70C4B1A6A54
:100C800004210A431A621A6A03390A431A62D7E72F
:100C9000FFF72EFC0600064B1B6A9B0712D5FFF7D9
:100CA00027FC801B064B9842F5D90320CFE0C046B5
:100CB00000100240FFFFFEFFFFFFFBFF007000403F
:100CC00088130000012D33D02368DB0610D563693B
:100CD000012B33D0053351D1654A536B04218B432B
:100CE0005363536BF4318B43A169C9000B435363C6
:100CF000236A002B00D1B0E05D4A51680C220A4003
:100D0000082A00D18AE0022B4FD0594A136859496A
:100D10000B401360FFF7ECFB0400554B1B689B0175
:100D20007AD5FFF7E5FB001B0228F6D903208EE0F9
:100D30004F4AD36950490B40D361C5E74C4B5A6BBE
:100D400004210A435A635A6B03390A435A63FFF773
:100D5000CFFB0500464B5B6B9B0706D4FFF7C8FB38
:100D6000401B0228F6D9032071E041494B6BF82261
:100D70009343A269D20013434B63B9E73C4B5A6BD0
:100D800004210A435A635A6B03398A435A63FFF7B3
:100D9000AFFB0500364B5B6B9B07A9D5FFF7A8FBA4
:100DA000401B0228F6D9032051E0314A136831492B
:100DB0000B401360FFF79CFB05002D4B1B689B014C
:100DC00006D5FFF795FB401B0228F6D903203EE02D
:100DD000274BDA6A0F218A43E16A0A43DA625A68CA
:100DE00026490A40A16A606A01430A435A601968A9
:100DF000802252040A431A60FFF77AFB04001C4B5E
:100E00001B689B0106D4FFF773FB001B0228F6D971
:100E100003201CE000201AE0002018E0012B1ED067
:100E2000134B5A68D96A80235B021340606A83427D
:100E300017D10F230B40E16A8B4214D1F0239B039F
:100E40001A40A36A9A4210D1002000E0012002B0AB
:100E500070BD0120FBE70120F9E70020F7E7012042
:100E6000F5E70120F3E70120F1E70120EFE7C046B5
:100E700000100240FFFFFFFEFFFFFFEFFFFFC2FF7A
:100E800010B5104B5A680C231340082B01D00E48A4
:100E900010BD910C073319400C48445C0949C96ADC
:100EA0000B400B49C95CD30304D50748FFF72CF965
:100EB0006043EDE763011B1B9801C01AC0000019D5
:100EC0000002E5E70010024000127A00201200083C
:100ED0003012000870B504000D00002800D17EE03B
:100EE000434B1A68012313408B420AD240490B68D6
:100EF000012293432B430B600B681A40AA4200D097
:100F00006FE023689A070ED55B0705D5394A51680B
:100F1000E023DB000B435360364A5368F0218B43D8
:100F2000A1680B4353602368DB072DD56368012B51
:100F30001ED0022B22D02F4A1268920753D52D497A
:100F40004A680320824313434B60FFF7D1FA06003F
:100F5000284B5B680C221A4063689B009A4213D0AE
:100F6000FFF7C6FA801B244B9842F1D9032035E0E5
:100F7000204A12689203E2D401202FE01D4A126831
:100F80009201DCD4012029E0194B1A680123134097
:100F9000AB4209D916490B68012293432B430B60DE
:100FA0000B681A40AA4220D123685B0706D5114A74
:100FB000536812490B40E1680B435360FFF760FF31
:100FC0000C4B5A6812090F2313400D4AD35CD840CA
:100FD0000C4B18600320FFF747FA002070BD01207A
:100FE000FCE70120FAE70120F8E70120F6E7C04618
:100FF000002002400010024088130000FFF8FFFFAD
:10100000101200080000002070B50C4D0C4E761B2D
:10101000B61005D0002408CD01349847A642FAD175
:1010200000F0EAF8074D084E761BB61005D00024F4
:1010300008CD01349847A642FAD170BD4412000889
:1010400044120008441200084C120008F0B50500D4
:10105000830749D0541E002A45D003000326CAB294
:1010600002E00135013C3ED301332A703342F8D10E
:10107000032C30D9FF220A40150215432A041543D8
:101080000F2C34D92700103F3F093E01B4461E0003
:101090001A0010366644156055609560D5601032B0
:1010A000B242F8D101373F01DB190F270C2227404C
:1010B00022403C00002A0ED03E1FB608B400A446D1
:1010C0001A001C1D644420C2A242FCD10324013634
:1010D000B6009B193C40002C05D0C9B21C191970F0
:1010E00001339C42FBD1F0BD03001400C0E7270090
:1010F000E2E7C046034B10B5002B02D0024800F0D7
:1011000005F810BD000000001D11000810B5010019
:1011100000230022002000F019F810BD70B5074D23
:10112000074C641BA41005D0013CA300EB58984762
:10113000002CF9D100F066F870BDC0464C120008D2
:10114000501200087047C0467047C046F0B5D646FA
:101150004F464646C0B5264F82B0060038689246D4
:1011600098468946FFF7EEFF224B1B680193A423A4
:10117000019A5B00D558002D2ED06C681F2C30DCF6
:10118000002E0FD1631C6B604B460234A4003868FC
:101190006351FFF7D9FF002002B0E0BCBA46B14668
:1011A000A846F0BD882251462800A300EB189950AC
:1011B000873AA2408930FF300168114301608421E1
:1011C000404649005850022EDCD12B008D33FF33AE
:1011D00019680A431A60D5E715004D35FF35D5501B
:1011E000CBE73868FFF7B0FF01204042D4E7C046A4
:1011F0003804002040120008F8B5C046F8BC08BC0E
:101200009E467047F8B5C046F8BC08BC9E4670477D
:1012100000000000000000000102030406070809A6
:1012200002030405060708090A0B0C0D0E0F101027
:101230000102030405060708090A0B0C0D0E0F1026
:04124000100000207A
:08124400F5100008E9000008A4
:04124C00C1000008D5
:1012500000127A00010000000400000000000000FD
:1012600000000000FC02002064030020CC030020EA
:10127000000000000000000000000000000000006E
:10128000000000000000000000000000000000005E
:10129000000000000000000000000000000000004E
:1012A000000000000000000000000000000000003E
:1012B000000000000000000000000000000000002E
:1012C000000000000000000000000000000000001E
:1012D000000000000000000000000000000000000E
:1012E00000000000000000000000000000000000FE
:1012F00000000000000000000000000000000000EE
:1013000000000000000000000100000000000000DC
:101310000E33CDAB34126DE6ECDE05000B000000A1
:1013200000000000000000000000000000000000BD
:1013300000000000000000000000000000000000AD
:10134000000000000000000000000000000000009D
:10135000000000000000000000000000000000008D
:0C16800000000000000000009C0400209E
:0400000508000415D6
:00000001FF
